{
  "address": "0x5756138F7eF649B3ECcbaaC64001740158F1E426",
  "abi": [
    {
      "inputs": [
        {
          "internalType": "contract IERC20",
          "name": "_rewardToken",
          "type": "address"
        }
      ],
      "stateMutability": "nonpayable",
      "type": "constructor"
    },
    {
      "anonymous": false,
      "inputs": [
        {
          "indexed": true,
          "internalType": "address",
          "name": "user",
          "type": "address"
        },
        {
          "indexed": true,
          "internalType": "uint256",
          "name": "pid",
          "type": "uint256"
        },
        {
          "indexed": false,
          "internalType": "uint256",
          "name": "reward",
          "type": "uint256"
        }
      ],
      "name": "Claim",
      "type": "event"
    },
    {
      "anonymous": false,
      "inputs": [
        {
          "indexed": true,
          "internalType": "address",
          "name": "user",
          "type": "address"
        },
        {
          "indexed": false,
          "internalType": "uint256",
          "name": "amount",
          "type": "uint256"
        }
      ],
      "name": "GrantDAO",
      "type": "event"
    },
    {
      "anonymous": false,
      "inputs": [
        {
          "indexed": true,
          "internalType": "address",
          "name": "previousOwner",
          "type": "address"
        },
        {
          "indexed": true,
          "internalType": "address",
          "name": "newOwner",
          "type": "address"
        }
      ],
      "name": "OwnershipTransferred",
      "type": "event"
    },
    {
      "inputs": [
        {
          "internalType": "address",
          "name": "_staking",
          "type": "address"
        }
      ],
      "name": "changeStakingAdderss",
      "outputs": [],
      "stateMutability": "nonpayable",
      "type": "function"
    },
    {
      "inputs": [
        {
          "internalType": "uint256",
          "name": "pid",
          "type": "uint256"
        }
      ],
      "name": "claimReward",
      "outputs": [],
      "stateMutability": "nonpayable",
      "type": "function"
    },
    {
      "inputs": [
        {
          "internalType": "address",
          "name": "user",
          "type": "address"
        },
        {
          "internalType": "uint256",
          "name": "amount",
          "type": "uint256"
        }
      ],
      "name": "grantDAO",
      "outputs": [],
      "stateMutability": "nonpayable",
      "type": "function"
    },
    {
      "inputs": [],
      "name": "owner",
      "outputs": [
        {
          "internalType": "address",
          "name": "",
          "type": "address"
        }
      ],
      "stateMutability": "view",
      "type": "function"
    },
    {
      "inputs": [],
      "name": "renounceOwnership",
      "outputs": [],
      "stateMutability": "nonpayable",
      "type": "function"
    },
    {
      "inputs": [],
      "name": "rewardToken",
      "outputs": [
        {
          "internalType": "contract IERC20",
          "name": "",
          "type": "address"
        }
      ],
      "stateMutability": "view",
      "type": "function"
    },
    {
      "inputs": [],
      "name": "staking",
      "outputs": [
        {
          "internalType": "contract CHNStakingInterface",
          "name": "",
          "type": "address"
        }
      ],
      "stateMutability": "view",
      "type": "function"
    },
    {
      "inputs": [
        {
          "internalType": "address",
          "name": "newOwner",
          "type": "address"
        }
      ],
      "name": "transferOwnership",
      "outputs": [],
      "stateMutability": "nonpayable",
      "type": "function"
    }
  ],
  "transactionHash": "0xf8b458b36f34c6bfc32f5ae51f0d9c24f7468b80a634120a72bfad92c2f32e14",
  "args": [
    "0x47974400432ADbCCAC6BdedAE73DDAaaFA91A5ec"
  ],
  "solcInputHash": "f334450306d96ba77ba6ff912ec2b37b",
  "bytecode": "0x608060405234801561001057600080fd5b50604051610c7e380380610c7e83398101604081905261002f916100ad565b6100383361005d565b600180546001600160a01b0319166001600160a01b03929092169190911790556100db565b600080546001600160a01b038381166001600160a01b0319831681178455604051919092169283917f8be0079c531659141344cd1fd0a4f28419497f9722a3daafe3b4186f6b6457e09190a35050565b6000602082840312156100be578081fd5b81516001600160a01b03811681146100d4578182fd5b9392505050565b610b94806100ea6000396000f3fe608060405234801561001057600080fd5b50600436106100885760003560e01c8063ae169a501161005b578063ae169a5014610111578063c3a4e83a14610124578063f2fde38b14610137578063f7c618c11461014a57610088565b8063317d2f5e1461008d5780634cf088d9146100a2578063715018a6146100eb5780638da5cb5b146100f3575b600080fd5b6100a061009b366004610a2e565b61016a565b005b6002546100c29073ffffffffffffffffffffffffffffffffffffffff1681565b60405173ffffffffffffffffffffffffffffffffffffffff909116815260200160405180910390f35b6100a0610237565b60005473ffffffffffffffffffffffffffffffffffffffff166100c2565b6100a061011f366004610a91565b6102c4565b6100a0610132366004610a48565b6103d1565b6100a0610145366004610a2e565b6104ca565b6001546100c29073ffffffffffffffffffffffffffffffffffffffff1681565b60005473ffffffffffffffffffffffffffffffffffffffff1633146101f0576040517f08c379a000000000000000000000000000000000000000000000000000000000815260206004820181905260248201527f4f776e61626c653a2063616c6c6572206973206e6f7420746865206f776e657260448201526064015b60405180910390fd5b600280547fffffffffffffffffffffffff00000000000000000000000000000000000000001673ffffffffffffffffffffffffffffffffffffffff92909216919091179055565b60005473ffffffffffffffffffffffffffffffffffffffff1633146102b8576040517f08c379a000000000000000000000000000000000000000000000000000000000815260206004820181905260248201527f4f776e61626c653a2063616c6c6572206973206e6f7420746865206f776e657260448201526064016101e7565b6102c260006105fa565b565b6002546040517f4bea3f030000000000000000000000000000000000000000000000000000000081523360048201526024810183905260009173ffffffffffffffffffffffffffffffffffffffff1690634bea3f0390604401602060405180830381600087803b15801561033757600080fd5b505af115801561034b573d6000803e3d6000fd5b505050506040513d601f19601f8201168201806040525081019061036f9190610aa9565b6001549091506103969073ffffffffffffffffffffffffffffffffffffffff16338361066f565b604051818152829033907f34fcbac0073d7c3d388e51312faf357774904998eeb8fca628b9e6f65ee1cbf79060200160405180910390a35050565b60005473ffffffffffffffffffffffffffffffffffffffff163314610452576040517f08c379a000000000000000000000000000000000000000000000000000000000815260206004820181905260248201527f4f776e61626c653a2063616c6c6572206973206e6f7420746865206f776e657260448201526064016101e7565b6001546104769073ffffffffffffffffffffffffffffffffffffffff16838361066f565b8173ffffffffffffffffffffffffffffffffffffffff167f8742eaee05554e58c50683f78014b9856234f78c6e67b703cfcdef048f6503d3826040516104be91815260200190565b60405180910390a25050565b60005473ffffffffffffffffffffffffffffffffffffffff16331461054b576040517f08c379a000000000000000000000000000000000000000000000000000000000815260206004820181905260248201527f4f776e61626c653a2063616c6c6572206973206e6f7420746865206f776e657260448201526064016101e7565b73ffffffffffffffffffffffffffffffffffffffff81166105ee576040517f08c379a000000000000000000000000000000000000000000000000000000000815260206004820152602660248201527f4f776e61626c653a206e6577206f776e657220697320746865207a65726f206160448201527f646472657373000000000000000000000000000000000000000000000000000060648201526084016101e7565b6105f7816105fa565b50565b6000805473ffffffffffffffffffffffffffffffffffffffff8381167fffffffffffffffffffffffff0000000000000000000000000000000000000000831681178455604051919092169283917f8be0079c531659141344cd1fd0a4f28419497f9722a3daafe3b4186f6b6457e09190a35050565b6040805173ffffffffffffffffffffffffffffffffffffffff8416602482015260448082018490528251808303909101815260649091019091526020810180517bffffffffffffffffffffffffffffffffffffffffffffffffffffffff167fa9059cbb000000000000000000000000000000000000000000000000000000001790526106fc908490610701565b505050565b6000610763826040518060400160405280602081526020017f5361666545524332303a206c6f772d6c6576656c2063616c6c206661696c65648152508573ffffffffffffffffffffffffffffffffffffffff1661080d9092919063ffffffff16565b8051909150156106fc57808060200190518101906107819190610a71565b6106fc576040517f08c379a000000000000000000000000000000000000000000000000000000000815260206004820152602a60248201527f5361666545524332303a204552433230206f7065726174696f6e20646964206e60448201527f6f7420737563636565640000000000000000000000000000000000000000000060648201526084016101e7565b606061081c8484600085610826565b90505b9392505050565b6060824710156108b8576040517f08c379a000000000000000000000000000000000000000000000000000000000815260206004820152602660248201527f416464726573733a20696e73756666696369656e742062616c616e636520666f60448201527f722063616c6c000000000000000000000000000000000000000000000000000060648201526084016101e7565b6108c1856109ad565b610927576040517f08c379a000000000000000000000000000000000000000000000000000000000815260206004820152601d60248201527f416464726573733a2063616c6c20746f206e6f6e2d636f6e747261637400000060448201526064016101e7565b6000808673ffffffffffffffffffffffffffffffffffffffff1685876040516109509190610ac1565b60006040518083038185875af1925050503d806000811461098d576040519150601f19603f3d011682016040523d82523d6000602084013e610992565b606091505b50915091506109a28282866109b7565b979650505050505050565b803b15155b919050565b606083156109c657508161081f565b8251156109d65782518084602001fd5b816040517f08c379a00000000000000000000000000000000000000000000000000000000081526004016101e79190610add565b803573ffffffffffffffffffffffffffffffffffffffff811681146109b257600080fd5b600060208284031215610a3f578081fd5b61081f82610a0a565b60008060408385031215610a5a578081fd5b610a6383610a0a565b946020939093013593505050565b600060208284031215610a82578081fd5b8151801515811461081f578182fd5b600060208284031215610aa2578081fd5b5035919050565b600060208284031215610aba578081fd5b5051919050565b60008251610ad3818460208701610b2e565b9190910192915050565b6000602082528251806020840152610afc816040850160208701610b2e565b601f017fffffffffffffffffffffffffffffffffffffffffffffffffffffffffffffffe0169190910160400192915050565b60005b83811015610b49578181015183820152602001610b31565b83811115610b58576000848401525b5050505056fea26469706673582212203a4c6256da7f13a76ca52670d50ce1dfb2a9712dfe6c934d9dfef162e16a94e764736f6c63430008030033",
  "devdoc": {
    "kind": "dev",
    "methods": {
      "owner()": {
        "details": "Returns the address of the current owner."
      },
      "renounceOwnership()": {
        "details": "Leaves the contract without owner. It will not be possible to call `onlyOwner` functions anymore. Can only be called by the current owner. NOTE: Renouncing ownership will leave the contract without an owner, thereby removing any functionality that is only available to the owner."
      },
      "transferOwnership(address)": {
        "details": "Transfers ownership of the contract to a new account (`newOwner`). Can only be called by the current owner."
      }
    },
    "version": 1
  },
  "userdoc": {
    "kind": "user",
    "methods": {},
    "version": 1
  },
  "storageLayout": {
    "storage": [
      {
        "astId": 496,
        "contract": "contracts/allocateStaking/CHNReward.sol:CHNReward",
        "label": "_owner",
        "offset": 0,
        "slot": "0",
        "type": "t_address"
      },
      {
        "astId": 2135,
        "contract": "contracts/allocateStaking/CHNReward.sol:CHNReward",
        "label": "rewardToken",
        "offset": 0,
        "slot": "1",
        "type": "t_contract(IERC20)1217"
      },
      {
        "astId": 2138,
        "contract": "contracts/allocateStaking/CHNReward.sol:CHNReward",
        "label": "staking",
        "offset": 0,
        "slot": "2",
        "type": "t_contract(CHNStakingInterface)2112"
      }
    ],
    "types": {
      "t_address": {
        "encoding": "inplace",
        "label": "address",
        "numberOfBytes": "20"
      },
      "t_contract(CHNStakingInterface)2112": {
        "encoding": "inplace",
        "label": "contract CHNStakingInterface",
        "numberOfBytes": "20"
      },
      "t_contract(IERC20)1217": {
        "encoding": "inplace",
        "label": "contract IERC20",
        "numberOfBytes": "20"
      }
    }
  }
}