{
  "address": "0xA8C2102941E540D44C612e8b63568C3ec0cD64b9",
  "abi": [
    {
      "anonymous": false,
      "inputs": [
        {
          "indexed": true,
          "internalType": "address",
          "name": "user",
          "type": "address"
        },
        {
          "indexed": true,
          "internalType": "uint256",
          "name": "pid",
          "type": "uint256"
        },
        {
          "indexed": false,
          "internalType": "uint256",
          "name": "amount",
          "type": "uint256"
        }
      ],
      "name": "EmergencyWithdraw",
      "type": "event"
    },
    {
      "anonymous": false,
      "inputs": [
        {
          "indexed": true,
          "internalType": "address",
          "name": "previousOwner",
          "type": "address"
        },
        {
          "indexed": true,
          "internalType": "address",
          "name": "newOwner",
          "type": "address"
        }
      ],
      "name": "OwnershipTransferred",
      "type": "event"
    },
    {
      "anonymous": false,
      "inputs": [
        {
          "indexed": true,
          "internalType": "address",
          "name": "user",
          "type": "address"
        },
        {
          "indexed": true,
          "internalType": "uint256",
          "name": "pid",
          "type": "uint256"
        },
        {
          "indexed": false,
          "internalType": "uint256",
          "name": "amount",
          "type": "uint256"
        }
      ],
      "name": "Stake",
      "type": "event"
    },
    {
      "anonymous": false,
      "inputs": [
        {
          "indexed": true,
          "internalType": "address",
          "name": "user",
          "type": "address"
        },
        {
          "indexed": true,
          "internalType": "uint256",
          "name": "pid",
          "type": "uint256"
        },
        {
          "indexed": false,
          "internalType": "uint256",
          "name": "amount",
          "type": "uint256"
        },
        {
          "indexed": false,
          "internalType": "uint256",
          "name": "reward",
          "type": "uint256"
        }
      ],
      "name": "Withdraw",
      "type": "event"
    },
    {
      "inputs": [],
      "name": "BONUS_MULTIPLIER",
      "outputs": [
        {
          "internalType": "uint256",
          "name": "",
          "type": "uint256"
        }
      ],
      "stateMutability": "view",
      "type": "function"
    },
    {
      "inputs": [
        {
          "internalType": "uint256",
          "name": "_allocPoint",
          "type": "uint256"
        },
        {
          "internalType": "contract IERC20",
          "name": "_stakeToken",
          "type": "address"
        },
        {
          "internalType": "bool",
          "name": "_withUpdate",
          "type": "bool"
        }
      ],
      "name": "add",
      "outputs": [],
      "stateMutability": "nonpayable",
      "type": "function"
    },
    {
      "inputs": [],
      "name": "bonusEndBlock",
      "outputs": [
        {
          "internalType": "uint256",
          "name": "",
          "type": "uint256"
        }
      ],
      "stateMutability": "view",
      "type": "function"
    },
    {
      "inputs": [
        {
          "internalType": "address",
          "name": "userAddress",
          "type": "address"
        },
        {
          "internalType": "uint256",
          "name": "pid",
          "type": "uint256"
        }
      ],
      "name": "claimRewardFromVault",
      "outputs": [
        {
          "internalType": "uint256",
          "name": "",
          "type": "uint256"
        }
      ],
      "stateMutability": "nonpayable",
      "type": "function"
    },
    {
      "inputs": [
        {
          "internalType": "uint256",
          "name": "_pid",
          "type": "uint256"
        }
      ],
      "name": "emergencyWithdraw",
      "outputs": [],
      "stateMutability": "nonpayable",
      "type": "function"
    },
    {
      "inputs": [
        {
          "internalType": "uint256",
          "name": "_from",
          "type": "uint256"
        },
        {
          "internalType": "uint256",
          "name": "_to",
          "type": "uint256"
        }
      ],
      "name": "getMultiplier",
      "outputs": [
        {
          "internalType": "uint256",
          "name": "",
          "type": "uint256"
        }
      ],
      "stateMutability": "view",
      "type": "function"
    },
    {
      "inputs": [
        {
          "internalType": "uint256",
          "name": "pid",
          "type": "uint256"
        },
        {
          "internalType": "address",
          "name": "user",
          "type": "address"
        }
      ],
      "name": "getStakingAmount",
      "outputs": [
        {
          "internalType": "uint256",
          "name": "",
          "type": "uint256"
        }
      ],
      "stateMutability": "view",
      "type": "function"
    },
    {
      "inputs": [
        {
          "internalType": "contract IERC20",
          "name": "_rewardToken",
          "type": "address"
        },
        {
          "internalType": "uint256",
          "name": "_rewardPerBlock",
          "type": "uint256"
        },
        {
          "internalType": "uint256",
          "name": "_startBlock",
          "type": "uint256"
        },
        {
          "internalType": "uint256",
          "name": "_bonusEndBlock",
          "type": "uint256"
        },
        {
          "internalType": "uint256",
          "name": "_multiplier",
          "type": "uint256"
        },
        {
          "internalType": "address",
          "name": "_rewardVault",
          "type": "address"
        }
      ],
      "name": "initialize",
      "outputs": [],
      "stateMutability": "nonpayable",
      "type": "function"
    },
    {
      "inputs": [],
      "name": "massUpdatePools",
      "outputs": [],
      "stateMutability": "nonpayable",
      "type": "function"
    },
    {
      "inputs": [],
      "name": "owner",
      "outputs": [
        {
          "internalType": "address",
          "name": "",
          "type": "address"
        }
      ],
      "stateMutability": "view",
      "type": "function"
    },
    {
      "inputs": [
        {
          "internalType": "uint256",
          "name": "_pid",
          "type": "uint256"
        },
        {
          "internalType": "address",
          "name": "_user",
          "type": "address"
        }
      ],
      "name": "pendingReward",
      "outputs": [
        {
          "internalType": "uint256",
          "name": "",
          "type": "uint256"
        }
      ],
      "stateMutability": "view",
      "type": "function"
    },
    {
      "inputs": [
        {
          "internalType": "uint256",
          "name": "",
          "type": "uint256"
        }
      ],
      "name": "poolInfo",
      "outputs": [
        {
          "internalType": "contract IERC20",
          "name": "stakeToken",
          "type": "address"
        },
        {
          "internalType": "uint256",
          "name": "allocPoint",
          "type": "uint256"
        },
        {
          "internalType": "uint256",
          "name": "lastRewardBlock",
          "type": "uint256"
        },
        {
          "internalType": "uint256",
          "name": "accCHNPerShare",
          "type": "uint256"
        },
        {
          "internalType": "uint256",
          "name": "totalAmountStake",
          "type": "uint256"
        }
      ],
      "stateMutability": "view",
      "type": "function"
    },
    {
      "inputs": [],
      "name": "poolLength",
      "outputs": [
        {
          "internalType": "uint256",
          "name": "",
          "type": "uint256"
        }
      ],
      "stateMutability": "view",
      "type": "function"
    },
    {
      "inputs": [],
      "name": "renounceOwnership",
      "outputs": [],
      "stateMutability": "nonpayable",
      "type": "function"
    },
    {
      "inputs": [],
      "name": "rewardPerBlock",
      "outputs": [
        {
          "internalType": "uint256",
          "name": "",
          "type": "uint256"
        }
      ],
      "stateMutability": "view",
      "type": "function"
    },
    {
      "inputs": [],
      "name": "rewardToken",
      "outputs": [
        {
          "internalType": "contract IERC20",
          "name": "",
          "type": "address"
        }
      ],
      "stateMutability": "view",
      "type": "function"
    },
    {
      "inputs": [],
      "name": "rewardVault",
      "outputs": [
        {
          "internalType": "address",
          "name": "",
          "type": "address"
        }
      ],
      "stateMutability": "view",
      "type": "function"
    },
    {
      "inputs": [
        {
          "internalType": "uint256",
          "name": "_pid",
          "type": "uint256"
        },
        {
          "internalType": "uint256",
          "name": "_allocPoint",
          "type": "uint256"
        },
        {
          "internalType": "bool",
          "name": "_withUpdate",
          "type": "bool"
        }
      ],
      "name": "set",
      "outputs": [],
      "stateMutability": "nonpayable",
      "type": "function"
    },
    {
      "inputs": [
        {
          "internalType": "uint256",
          "name": "_pid",
          "type": "uint256"
        },
        {
          "internalType": "uint256",
          "name": "_amount",
          "type": "uint256"
        }
      ],
      "name": "stake",
      "outputs": [],
      "stateMutability": "nonpayable",
      "type": "function"
    },
    {
      "inputs": [],
      "name": "startBlock",
      "outputs": [
        {
          "internalType": "uint256",
          "name": "",
          "type": "uint256"
        }
      ],
      "stateMutability": "view",
      "type": "function"
    },
    {
      "inputs": [],
      "name": "totalAllocPoint",
      "outputs": [
        {
          "internalType": "uint256",
          "name": "",
          "type": "uint256"
        }
      ],
      "stateMutability": "view",
      "type": "function"
    },
    {
      "inputs": [
        {
          "internalType": "address",
          "name": "newOwner",
          "type": "address"
        }
      ],
      "name": "transferOwnership",
      "outputs": [],
      "stateMutability": "nonpayable",
      "type": "function"
    },
    {
      "inputs": [
        {
          "internalType": "uint256",
          "name": "_pid",
          "type": "uint256"
        }
      ],
      "name": "updatePool",
      "outputs": [],
      "stateMutability": "nonpayable",
      "type": "function"
    },
    {
      "inputs": [
        {
          "internalType": "uint256",
          "name": "",
          "type": "uint256"
        },
        {
          "internalType": "address",
          "name": "",
          "type": "address"
        }
      ],
      "name": "userInfo",
      "outputs": [
        {
          "internalType": "uint256",
          "name": "amount",
          "type": "uint256"
        },
        {
          "internalType": "uint256",
          "name": "rewardDebt",
          "type": "uint256"
        },
        {
          "internalType": "uint256",
          "name": "pendingTokenReward",
          "type": "uint256"
        }
      ],
      "stateMutability": "view",
      "type": "function"
    },
    {
      "inputs": [
        {
          "internalType": "uint256",
          "name": "_pid",
          "type": "uint256"
        },
        {
          "internalType": "uint256",
          "name": "_amount",
          "type": "uint256"
        }
      ],
      "name": "withdraw",
      "outputs": [],
      "stateMutability": "nonpayable",
      "type": "function"
    }
  ],
  "transactionHash": "0x77337a661aa25b89bf154430396f3867c3222b4f2dbbbaf2a408add9994cfd5b",
  "args": [],
  "solcInputHash": "f334450306d96ba77ba6ff912ec2b37b",
  "bytecode": "0x6080604052600060695534801561001557600080fd5b50611df0806100256000396000f3fe608060405234801561001057600080fd5b50600436106101a35760003560e01c8063630b5ba1116100ee5780638da5cb5b1161009757806398969e821161007157806398969e82146103b3578063b3349467146103c6578063f2fde38b1461042c578063f7c618c11461043f576101a3565b80638da5cb5b1461032d5780638dbb1e3a1461034b57806393f1a40b1461035e576101a3565b80637b0472f0116100c85780637b0472f0146103085780638aa285501461031b5780638ae39cac14610324576101a3565b8063630b5ba1146102e557806364482f79146102ed578063715018a614610300576101a3565b8063441a3e701161015057806351eb05a61161012a57806351eb05a6146102ac5780635312ea8e146102bf5780635df5f96f146102d2576101a3565b8063441a3e701461027d57806348cd4cb1146102905780634bea3f0314610299576101a3565b80631aed6553116101815780631aed65531461021a5780631eaaa045146102235780633a2c677714610238576101a3565b8063081e3eda146101a85780631526fe27146101bf57806317caf6f114610211575b600080fd5b6067545b6040519081526020015b60405180910390f35b6101d26101cd366004611b0e565b61045f565b6040805173ffffffffffffffffffffffffffffffffffffffff90961686526020860194909452928401919091526060830152608082015260a0016101b6565b6101ac60695481565b6101ac606b5481565b610236610231366004611b55565b6104b7565b005b606d546102589073ffffffffffffffffffffffffffffffffffffffff1681565b60405173ffffffffffffffffffffffffffffffffffffffff90911681526020016101b6565b61023661028b366004611b96565b6106b2565b6101ac606a5481565b6101ac6102a7366004611a6a565b610884565b6102366102ba366004611b0e565b610a04565b6102366102cd366004611b0e565b610aee565b6102366102e0366004611ab1565b610bdf565b610236610d72565b6102366102fb366004611bb7565b610d9d565b610236610ef1565b610236610316366004611b96565b610f7e565b6101ac606c5481565b6101ac60665481565b60335473ffffffffffffffffffffffffffffffffffffffff16610258565b6101ac610359366004611b96565b6110d3565b61039861036c366004611b26565b606860209081526000928352604080842090915290825290208054600182015460029092015490919083565b604080519384526020840192909252908201526060016101b6565b6101ac6103c1366004611b26565b61113c565b6101ac6103d4366004611b26565b600091825260686020908152604080842073ffffffffffffffffffffffffffffffffffffffff939093168452918152918190208151606081018352815480825260018301549482019490945260029091015491015290565b61023661043a366004611a4e565b611272565b6065546102589073ffffffffffffffffffffffffffffffffffffffff1681565b6067818154811061046f57600080fd5b60009182526020909120600590910201805460018201546002830154600384015460049094015473ffffffffffffffffffffffffffffffffffffffff90931694509092909185565b60335473ffffffffffffffffffffffffffffffffffffffff16331461053d576040517f08c379a000000000000000000000000000000000000000000000000000000000815260206004820181905260248201527f4f776e61626c653a2063616c6c6572206973206e6f7420746865206f776e657260448201526064015b60405180910390fd5b801561054b5761054b610d72565b6000606a54431161055e57606a54610560565b435b606954909150610570908561139f565b6069556040805160a08101825273ffffffffffffffffffffffffffffffffffffffff9485168152602081019586529081019182526000606082018181526080830182815260678054600181018255935292517f9787eeb91fe3101235e4a76063c7023ecb40f923f97916639c598592fa30d6ae600590930292830180547fffffffffffffffffffffffff000000000000000000000000000000000000000016919097161790955594517f9787eeb91fe3101235e4a76063c7023ecb40f923f97916639c598592fa30d6af86015590517f9787eeb91fe3101235e4a76063c7023ecb40f923f97916639c598592fa30d6b085015591517f9787eeb91fe3101235e4a76063c7023ecb40f923f97916639c598592fa30d6b184015550517f9787eeb91fe3101235e4a76063c7023ecb40f923f97916639c598592fa30d6b290910155565b6000606783815481106106ee577f4e487b7100000000000000000000000000000000000000000000000000000000600052603260045260246000fd5b600091825260208083208684526068825260408085203386529092529220805460059092029092019250831115610781576040517f08c379a000000000000000000000000000000000000000000000000000000000815260206004820152601260248201527f77697468647261773a206e6f7420676f6f6400000000000000000000000000006044820152606401610534565b61078a84610a04565b60006107c482600101546107be64e8d4a510006107b8876003015487600001546113b290919063ffffffff16565b906113be565b906113ca565b90508082600201546107d69190611c51565b600283015581546107e790856113ca565b825560048301546107f890856113ca565b6004840155600383015482546108189164e8d4a51000916107b8916113b2565b600183015582546108409073ffffffffffffffffffffffffffffffffffffffff1633866113d6565b6040805185815260208101839052869133917f02f25270a4d87bea75db541cdfe559334a275b4a233520ed6c0a2429667cca94910160405180910390a35050505050565b606d5460009073ffffffffffffffffffffffffffffffffffffffff163314610908576040517f08c379a000000000000000000000000000000000000000000000000000000000815260206004820152601a60248201527f4f776e61626c653a206f6e6c7920726577617264207661756c740000000000006044820152606401610534565b600060678381548110610944577f4e487b7100000000000000000000000000000000000000000000000000000000600052603260045260246000fd5b6000918252602080832086845260688252604080852073ffffffffffffffffffffffffffffffffffffffff8a16865290925292206005909102909101915061098b84610a04565b60006109b982600101546107be64e8d4a510006107b8876003015487600001546113b290919063ffffffff16565b90508160020154816109cb9190611c51565b60006002840155600384015483549192506109f19164e8d4a51000916107b891906113b2565b6001909201919091559150505b92915050565b600060678281548110610a40577f4e487b7100000000000000000000000000000000000000000000000000000000600052603260045260246000fd5b9060005260206000209060050201905080600201544311610a615750610aeb565b600481015480610a78575043600290910155610aeb565b6000610a888360020154436110d3565b90506000610ab56069546107b88660010154610aaf606654876113b290919063ffffffff16565b906113b2565b9050610ad8610acd846107b88464e8d4a510006113b2565b60038601549061139f565b6003850155505043600290920191909155505b50565b600060678281548110610b2a577f4e487b7100000000000000000000000000000000000000000000000000000000600052603260045260246000fd5b600091825260208083208584526068825260408085203386529092529083208054848255600182018590556002820194909455600592909202016004810154909350909190610b7990826113ca565b60048401558254610ba19073ffffffffffffffffffffffffffffffffffffffff1633836113d6565b604051818152849033907fbb757047c2b5f3974fe26b7c10f732e7bce710b0952a71082702781e62ae0595906020015b60405180910390a350505050565b600054610100900460ff16610bfa5760005460ff1615610bfe565b303b155b610c8a576040517f08c379a000000000000000000000000000000000000000000000000000000000815260206004820152602e60248201527f496e697469616c697a61626c653a20636f6e747261637420697320616c72656160448201527f647920696e697469616c697a65640000000000000000000000000000000000006064820152608401610534565b600054610100900460ff16158015610cc957600080547fffffffffffffffffffffffffffffffffffffffffffffffffffffffffffff0000166101011790555b610cd16114af565b6065805473ffffffffffffffffffffffffffffffffffffffff808a167fffffffffffffffffffffffff0000000000000000000000000000000000000000928316179092556066889055606a879055606b869055606c859055606d8054928516929091169190911790558015610d6957600080547fffffffffffffffffffffffffffffffffffffffffffffffffffffffffffff00ff1690555b50505050505050565b60675460005b81811015610d9957610d8981610a04565b610d9281611d22565b9050610d78565b5050565b60335473ffffffffffffffffffffffffffffffffffffffff163314610e1e576040517f08c379a000000000000000000000000000000000000000000000000000000000815260206004820181905260248201527f4f776e61626c653a2063616c6c6572206973206e6f7420746865206f776e65726044820152606401610534565b8015610e2c57610e2c610d72565b610e9682610e9060678681548110610e6d577f4e487b7100000000000000000000000000000000000000000000000000000000600052603260045260246000fd5b9060005260206000209060050201600101546069546113ca90919063ffffffff16565b9061139f565b6069819055508160678481548110610ed7577f4e487b7100000000000000000000000000000000000000000000000000000000600052603260045260246000fd5b906000526020600020906005020160010181905550505050565b60335473ffffffffffffffffffffffffffffffffffffffff163314610f72576040517f08c379a000000000000000000000000000000000000000000000000000000000815260206004820181905260248201527f4f776e61626c653a2063616c6c6572206973206e6f7420746865206f776e65726044820152606401610534565b610f7c6000611556565b565b600060678381548110610fba577f4e487b7100000000000000000000000000000000000000000000000000000000600052603260045260246000fd5b60009182526020808320868452606882526040808520338652909252922060059091029091019150610feb84610a04565b80541561103957600061102082600101546107be64e8d4a510006107b8876003015487600001546113b290919063ffffffff16565b6002830154909150611032908261139f565b6002830155505b6004820154611048908461139f565b600483015581546110719073ffffffffffffffffffffffffffffffffffffffff163330866115cd565b805461107d908461139f565b808255600383015461109a9164e8d4a51000916107b891906113b2565b6001820155604051838152849033907f5af417134f72a9d41143ace85b0a26dce6f550f894f2cbc1eeee8810603d91b690602001610bd1565b6000606b5482116110f657606c546110ef90610aaf84866113ca565b90506109fe565b606b548310611109576110ef82846113ca565b6110ef611121606b54846113ca90919063ffffffff16565b610e90606c54610aaf87606b546113ca90919063ffffffff16565b60008060678481548110611179577f4e487b7100000000000000000000000000000000000000000000000000000000600052603260045260246000fd5b6000918252602080832087845260688252604080852073ffffffffffffffffffffffffffffffffffffffff8916865290925292206003600590920290920190810154600482015460028301549294509091431180156111d757508015155b156112375760006111ec8560020154436110d3565b905060006112136069546107b88860010154610aaf606654876113b290919063ffffffff16565b905061123261122b846107b88464e8d4a510006113b2565b859061139f565b935050505b6112678360020154610e9085600101546107be64e8d4a510006107b8888a600001546113b290919063ffffffff16565b979650505050505050565b60335473ffffffffffffffffffffffffffffffffffffffff1633146112f3576040517f08c379a000000000000000000000000000000000000000000000000000000000815260206004820181905260248201527f4f776e61626c653a2063616c6c6572206973206e6f7420746865206f776e65726044820152606401610534565b73ffffffffffffffffffffffffffffffffffffffff8116611396576040517f08c379a000000000000000000000000000000000000000000000000000000000815260206004820152602660248201527f4f776e61626c653a206e6577206f776e657220697320746865207a65726f206160448201527f64647265737300000000000000000000000000000000000000000000000000006064820152608401610534565b610aeb81611556565b60006113ab8284611c51565b9392505050565b60006113ab8284611ca2565b60006113ab8284611c69565b60006113ab8284611cdf565b60405173ffffffffffffffffffffffffffffffffffffffff83166024820152604481018290526114aa9084907fa9059cbb00000000000000000000000000000000000000000000000000000000906064015b604080517fffffffffffffffffffffffffffffffffffffffffffffffffffffffffffffffe08184030181529190526020810180517bffffffffffffffffffffffffffffffffffffffffffffffffffffffff167fffffffff0000000000000000000000000000000000000000000000000000000090931692909217909152611631565b505050565b600054610100900460ff16611546576040517f08c379a000000000000000000000000000000000000000000000000000000000815260206004820152602b60248201527f496e697469616c697a61626c653a20636f6e7472616374206973206e6f74206960448201527f6e697469616c697a696e670000000000000000000000000000000000000000006064820152608401610534565b61154e61173d565b610f7c6117d4565b6033805473ffffffffffffffffffffffffffffffffffffffff8381167fffffffffffffffffffffffff0000000000000000000000000000000000000000831681179093556040519116919082907f8be0079c531659141344cd1fd0a4f28419497f9722a3daafe3b4186f6b6457e090600090a35050565b60405173ffffffffffffffffffffffffffffffffffffffff8085166024830152831660448201526064810182905261162b9085907f23b872dd0000000000000000000000000000000000000000000000000000000090608401611428565b50505050565b6000611693826040518060400160405280602081526020017f5361666545524332303a206c6f772d6c6576656c2063616c6c206661696c65648152508573ffffffffffffffffffffffffffffffffffffffff166118749092919063ffffffff16565b8051909150156114aa57808060200190518101906116b19190611a95565b6114aa576040517f08c379a000000000000000000000000000000000000000000000000000000000815260206004820152602a60248201527f5361666545524332303a204552433230206f7065726174696f6e20646964206e60448201527f6f742073756363656564000000000000000000000000000000000000000000006064820152608401610534565b600054610100900460ff16610f7c576040517f08c379a000000000000000000000000000000000000000000000000000000000815260206004820152602b60248201527f496e697469616c697a61626c653a20636f6e7472616374206973206e6f74206960448201527f6e697469616c697a696e670000000000000000000000000000000000000000006064820152608401610534565b600054610100900460ff1661186b576040517f08c379a000000000000000000000000000000000000000000000000000000000815260206004820152602b60248201527f496e697469616c697a61626c653a20636f6e7472616374206973206e6f74206960448201527f6e697469616c697a696e670000000000000000000000000000000000000000006064820152608401610534565b610f7c33611556565b6060611883848460008561188b565b949350505050565b60608247101561191d576040517f08c379a000000000000000000000000000000000000000000000000000000000815260206004820152602660248201527f416464726573733a20696e73756666696369656e742062616c616e636520666f60448201527f722063616c6c00000000000000000000000000000000000000000000000000006064820152608401610534565b843b611985576040517f08c379a000000000000000000000000000000000000000000000000000000000815260206004820152601d60248201527f416464726573733a2063616c6c20746f206e6f6e2d636f6e74726163740000006044820152606401610534565b6000808673ffffffffffffffffffffffffffffffffffffffff1685876040516119ae9190611be4565b60006040518083038185875af1925050503d80600081146119eb576040519150601f19603f3d011682016040523d82523d6000602084013e6119f0565b606091505b509150915061126782828660608315611a0a5750816113ab565b825115611a1a5782518084602001fd5b816040517f08c379a00000000000000000000000000000000000000000000000000000000081526004016105349190611c00565b600060208284031215611a5f578081fd5b81356113ab81611d8a565b60008060408385031215611a7c578081fd5b8235611a8781611d8a565b946020939093013593505050565b600060208284031215611aa6578081fd5b81516113ab81611dac565b60008060008060008060c08789031215611ac9578182fd5b8635611ad481611d8a565b95506020870135945060408701359350606087013592506080870135915060a0870135611b0081611d8a565b809150509295509295509295565b600060208284031215611b1f578081fd5b5035919050565b60008060408385031215611b38578182fd5b823591506020830135611b4a81611d8a565b809150509250929050565b600080600060608486031215611b69578283fd5b833592506020840135611b7b81611d8a565b91506040840135611b8b81611dac565b809150509250925092565b60008060408385031215611ba8578182fd5b50508035926020909101359150565b600080600060608486031215611bcb578283fd5b83359250602084013591506040840135611b8b81611dac565b60008251611bf6818460208701611cf6565b9190910192915050565b6000602082528251806020840152611c1f816040850160208701611cf6565b601f017fffffffffffffffffffffffffffffffffffffffffffffffffffffffffffffffe0169190910160400192915050565b60008219821115611c6457611c64611d5b565b500190565b600082611c9d577f4e487b710000000000000000000000000000000000000000000000000000000081526012600452602481fd5b500490565b6000817fffffffffffffffffffffffffffffffffffffffffffffffffffffffffffffffff0483118215151615611cda57611cda611d5b565b500290565b600082821015611cf157611cf1611d5b565b500390565b60005b83811015611d11578181015183820152602001611cf9565b8381111561162b5750506000910152565b60007fffffffffffffffffffffffffffffffffffffffffffffffffffffffffffffffff821415611d5457611d54611d5b565b5060010190565b7f4e487b7100000000000000000000000000000000000000000000000000000000600052601160045260246000fd5b73ffffffffffffffffffffffffffffffffffffffff81168114610aeb57600080fd5b8015158114610aeb57600080fdfea264697066735822122093d04461860e2e10f56608f51a3eddf6a1ae6edb074fe7250a93713e14f2264864736f6c63430008030033",
  "devdoc": {
    "kind": "dev",
    "methods": {
      "owner()": {
        "details": "Returns the address of the current owner."
      },
      "renounceOwnership()": {
        "details": "Leaves the contract without owner. It will not be possible to call `onlyOwner` functions anymore. Can only be called by the current owner. NOTE: Renouncing ownership will leave the contract without an owner, thereby removing any functionality that is only available to the owner."
      },
      "transferOwnership(address)": {
        "details": "Transfers ownership of the contract to a new account (`newOwner`). Can only be called by the current owner."
      }
    },
    "version": 1
  },
  "userdoc": {
    "kind": "user",
    "methods": {},
    "version": 1
  },
  "storageLayout": {
    "storage": [
      {
        "astId": 132,
        "contract": "contracts/allocateStaking/CHNStaking.sol:CHNStaking",
        "label": "_initialized",
        "offset": 0,
        "slot": "0",
        "type": "t_bool"
      },
      {
        "astId": 135,
        "contract": "contracts/allocateStaking/CHNStaking.sol:CHNStaking",
        "label": "_initializing",
        "offset": 1,
        "slot": "0",
        "type": "t_bool"
      },
      {
        "astId": 487,
        "contract": "contracts/allocateStaking/CHNStaking.sol:CHNStaking",
        "label": "__gap",
        "offset": 0,
        "slot": "1",
        "type": "t_array(t_uint256)50_storage"
      },
      {
        "astId": 10,
        "contract": "contracts/allocateStaking/CHNStaking.sol:CHNStaking",
        "label": "_owner",
        "offset": 0,
        "slot": "51",
        "type": "t_address"
      },
      {
        "astId": 124,
        "contract": "contracts/allocateStaking/CHNStaking.sol:CHNStaking",
        "label": "__gap",
        "offset": 0,
        "slot": "52",
        "type": "t_array(t_uint256)49_storage"
      },
      {
        "astId": 2284,
        "contract": "contracts/allocateStaking/CHNStaking.sol:CHNStaking",
        "label": "rewardToken",
        "offset": 0,
        "slot": "101",
        "type": "t_contract(IERC20)1217"
      },
      {
        "astId": 2286,
        "contract": "contracts/allocateStaking/CHNStaking.sol:CHNStaking",
        "label": "rewardPerBlock",
        "offset": 0,
        "slot": "102",
        "type": "t_uint256"
      },
      {
        "astId": 2290,
        "contract": "contracts/allocateStaking/CHNStaking.sol:CHNStaking",
        "label": "poolInfo",
        "offset": 0,
        "slot": "103",
        "type": "t_array(t_struct(PoolInfo)2255_storage)dyn_storage"
      },
      {
        "astId": 2297,
        "contract": "contracts/allocateStaking/CHNStaking.sol:CHNStaking",
        "label": "userInfo",
        "offset": 0,
        "slot": "104",
        "type": "t_mapping(t_uint256,t_mapping(t_address,t_struct(UserInfo)2243_storage))"
      },
      {
        "astId": 2300,
        "contract": "contracts/allocateStaking/CHNStaking.sol:CHNStaking",
        "label": "totalAllocPoint",
        "offset": 0,
        "slot": "105",
        "type": "t_uint256"
      },
      {
        "astId": 2302,
        "contract": "contracts/allocateStaking/CHNStaking.sol:CHNStaking",
        "label": "startBlock",
        "offset": 0,
        "slot": "106",
        "type": "t_uint256"
      },
      {
        "astId": 2304,
        "contract": "contracts/allocateStaking/CHNStaking.sol:CHNStaking",
        "label": "bonusEndBlock",
        "offset": 0,
        "slot": "107",
        "type": "t_uint256"
      },
      {
        "astId": 2306,
        "contract": "contracts/allocateStaking/CHNStaking.sol:CHNStaking",
        "label": "BONUS_MULTIPLIER",
        "offset": 0,
        "slot": "108",
        "type": "t_uint256"
      },
      {
        "astId": 2308,
        "contract": "contracts/allocateStaking/CHNStaking.sol:CHNStaking",
        "label": "rewardVault",
        "offset": 0,
        "slot": "109",
        "type": "t_address"
      }
    ],
    "types": {
      "t_address": {
        "encoding": "inplace",
        "label": "address",
        "numberOfBytes": "20"
      },
      "t_array(t_struct(PoolInfo)2255_storage)dyn_storage": {
        "base": "t_struct(PoolInfo)2255_storage",
        "encoding": "dynamic_array",
        "label": "struct CHNStaking.PoolInfo[]",
        "numberOfBytes": "32"
      },
      "t_array(t_uint256)49_storage": {
        "base": "t_uint256",
        "encoding": "inplace",
        "label": "uint256[49]",
        "numberOfBytes": "1568"
      },
      "t_array(t_uint256)50_storage": {
        "base": "t_uint256",
        "encoding": "inplace",
        "label": "uint256[50]",
        "numberOfBytes": "1600"
      },
      "t_bool": {
        "encoding": "inplace",
        "label": "bool",
        "numberOfBytes": "1"
      },
      "t_contract(IERC20)1217": {
        "encoding": "inplace",
        "label": "contract IERC20",
        "numberOfBytes": "20"
      },
      "t_mapping(t_address,t_struct(UserInfo)2243_storage)": {
        "encoding": "mapping",
        "key": "t_address",
        "label": "mapping(address => struct CHNStaking.UserInfo)",
        "numberOfBytes": "32",
        "value": "t_struct(UserInfo)2243_storage"
      },
      "t_mapping(t_uint256,t_mapping(t_address,t_struct(UserInfo)2243_storage))": {
        "encoding": "mapping",
        "key": "t_uint256",
        "label": "mapping(uint256 => mapping(address => struct CHNStaking.UserInfo))",
        "numberOfBytes": "32",
        "value": "t_mapping(t_address,t_struct(UserInfo)2243_storage)"
      },
      "t_struct(PoolInfo)2255_storage": {
        "encoding": "inplace",
        "label": "struct CHNStaking.PoolInfo",
        "members": [
          {
            "astId": 2246,
            "contract": "contracts/allocateStaking/CHNStaking.sol:CHNStaking",
            "label": "stakeToken",
            "offset": 0,
            "slot": "0",
            "type": "t_contract(IERC20)1217"
          },
          {
            "astId": 2248,
            "contract": "contracts/allocateStaking/CHNStaking.sol:CHNStaking",
            "label": "allocPoint",
            "offset": 0,
            "slot": "1",
            "type": "t_uint256"
          },
          {
            "astId": 2250,
            "contract": "contracts/allocateStaking/CHNStaking.sol:CHNStaking",
            "label": "lastRewardBlock",
            "offset": 0,
            "slot": "2",
            "type": "t_uint256"
          },
          {
            "astId": 2252,
            "contract": "contracts/allocateStaking/CHNStaking.sol:CHNStaking",
            "label": "accCHNPerShare",
            "offset": 0,
            "slot": "3",
            "type": "t_uint256"
          },
          {
            "astId": 2254,
            "contract": "contracts/allocateStaking/CHNStaking.sol:CHNStaking",
            "label": "totalAmountStake",
            "offset": 0,
            "slot": "4",
            "type": "t_uint256"
          }
        ],
        "numberOfBytes": "160"
      },
      "t_struct(UserInfo)2243_storage": {
        "encoding": "inplace",
        "label": "struct CHNStaking.UserInfo",
        "members": [
          {
            "astId": 2238,
            "contract": "contracts/allocateStaking/CHNStaking.sol:CHNStaking",
            "label": "amount",
            "offset": 0,
            "slot": "0",
            "type": "t_uint256"
          },
          {
            "astId": 2240,
            "contract": "contracts/allocateStaking/CHNStaking.sol:CHNStaking",
            "label": "rewardDebt",
            "offset": 0,
            "slot": "1",
            "type": "t_uint256"
          },
          {
            "astId": 2242,
            "contract": "contracts/allocateStaking/CHNStaking.sol:CHNStaking",
            "label": "pendingTokenReward",
            "offset": 0,
            "slot": "2",
            "type": "t_uint256"
          }
        ],
        "numberOfBytes": "96"
      },
      "t_uint256": {
        "encoding": "inplace",
        "label": "uint256",
        "numberOfBytes": "32"
      }
    }
  }
}